:020000040800F2
:100000000000022029110008B1100008B7100008F4
:10001000BD100008C3100008C9100008000000004F
:10002000000000000000000000000000CF100008E9
:10003000DD10000800000000EB100008F9100008B7
:100040007911000879110008791100087911000868
:100050007911000879110008791100087911000858
:100060007911000879110008791100087911000848
:100070007911000879110008791100087911000838
:100080007911000879110008791100087911000828
:100090007911000879110008791100087911000818
:1000A0007911000879110008791100087911000808
:1000B00079110008791100087911000879110008F8
:1000C00079110008791100087911000879110008E8
:1000D00079110008791100087911000879110008D8
:1000E00079110008791100087911000879110008C8
:1000F00079110008791100087911000879110008B8
:1001000079110008791100087911000879110008A7
:100110007911000879110008791100087911000897
:100120007911000879110008791100087911000887
:10013000791100080000000000000000791100089B
:100140007911000879110008791100087911000867
:100150007911000879110008791100087911000857
:100160007911000879110008791100087911000847
:1001700079110008791100087911000800000000C9
:1001800000000000791100080000000000000000DD
:10019000791100080000000000000000791100083B
:1001A00000000000000000000000000079110008BD
:1001B00079110008791100087911000879110008F7
:0401C00079110008A9
:1001C40010B5054C237833B9044B13B10448AFF38D
:1001D40000800123237010BD0C00002000000000EB
:1001E4002833000808B5034B1BB103490348AFF398
:1001F400008008BD00000000100000202833000823
:1002040053B94AB9002908BF00281CBF4FF0FF3179
:100214004FF0FF3000F074B9ADF1080C6DE904CE75
:1002240000F006F8DDF804E0DDE9022304B07047CD
:100234002DE9F047089D04468E46002B4DD18A4295
:10024400944669D9B2FA82F252B101FA02F3C2F1C8
:10025400200120FA01F10CFA02FC41EA030E944059
:100264004FEA1C48210CBEFBF8F61FFA8CF708FB7A
:1002740016E341EA034306FB07F199420AD91CEB52
:10028400030306F1FF3080F01F81994240F21C8184
:10029400023E63445B1AA4B2B3FBF8F008FB1033CC
:1002A40044EA034400FB07F7A7420AD91CEB040401
:1002B40000F1FF3380F00A81A74240F207816444D1
:1002C400023840EA0640E41B00261DB1D440002356
:1002D400C5E900433146BDE8F0878B4209D9002DBA
:1002E40000F0EF800026C5E9000130463146BDE844
:1002F400F087B3FA83F6002E4AD18B4202D38242AE
:1003040000F2F980841A61EB030301209E46002D5C
:10031400E0D0C5E9004EDDE702B9FFDEB2FA82F2B1
:10032400002A40F09280A1EB0C014FEA1C471FFA0F
:100334008CFE0126200CB1FBF7F307FB131140EAF6
:1003440001410EFB03F0884208D91CEB010103F1C3
:10035400FF3802D2884200F2CB804346091AA4B285
:10036400B1FBF7F007FB101144EA01440EFB00FE59
:10037400A64508D91CEB040400F1FF3102D2A645BE
:1003840000F2BB800846A4EB0E0440EA03409CE75D
:10039400C6F12007B34022FA07FC4CEA030C20FA0A
:1003A40007F401FA06F31C43F9404FEA1C4900FA2A
:1003B40006F3B1FBF9F8200C1FFA8CFE09FB1811A7
:1003C40040EA014108FB0EF0884202FA06F20BD91A
:1003D4001CEB010108F1FF3A80F08880884240F26A
:1003E4008580A8F102086144091AA4B2B1FBF9F0AE
:1003F40009FB101144EA014100FB0EFE8E4508D9A9
:100404001CEB010100F1FF346CD28E456AD902382D
:10041400614440EA0840A0FB0294A1EB0E01A14212
:10042400C846A64656D353D05DB1B3EB080261EB80
:100434000E0101FA07F722FA06F3F1401F43C5E95A
:10044400007100263146BDE8F087C2F12003D84090
:100454000CFA02FC21FA03F3914001434FEA1C47D2
:100464001FFA8CFEB3FBF7F007FB10360B0C43EAC4
:10047400064300FB0EF69E4204FA02F408D91CEB74
:10048400030300F1FF382FD29E422DD90238634472
:100494009B1B89B2B3FBF7F607FB163341EA034112
:1004A40006FB0EF38B4208D91CEB010106F1FF3861
:1004B40016D28B4214D9023E6144C91A46EA004658
:1004C40038E72E46284605E70646E3E61846F8E6EA
:1004D4004B45A9D2B9EB020864EB0C0E0138A3E733
:1004E4004646EAE7204694E74046D1E7D0467BE714
:1004F400023B614432E7304609E76444023842E78C
:10050400704700BF80B500AF02F04AFE00F01CF84F
:1005140000F032FB00F016F900F068F900F0BAF9C7
:1005240000F00CFA00F06EFA00F0FCFA00F07AF831
:1005340001222021034801F099F84FF4FA7002F0E7
:10054400A1FEF5E70000024080B594B000AF07F1CA
:100554001C0334220021184602F0DCFE07F10803D4
:1005640000221A605A609A60DA601A6100237B6084
:100574002A4B1B6C294A43F080531364274B1B6C92
:1005840003F080537B607B6800233B60244B1B6833
:1005940023F44043224A43F480431360204B1B68F6
:1005A40003F440433B603B680223FB610123BB62CD
:1005B4001023FB6202237B630023BB631023FB63D2
:1005C4004FF4A8733B6404237B640223BB640223BB
:1005D400FB6407F11C03184601F092FA0346002B52
:1005E40001D000F047FB0F23BB600223FB60002314
:1005F4003B614FF480537B610023BB6107F1080327
:100604000221184601F01AFD0346002B01D000F028
:1006140031FB00BF5037BD4680BD00BF00380240EB
:100624000070004080B592B000AF07F14003002293
:100634001A605A6007F1240300221A605A609A6013
:10064400DA601A615A619A613B1D20220021184622
:1006540002F060FE394B3A4A1A60384B00225A6065
:10066400364B00229A60354B4FF6FF72DA60334BFB
:1006740000221A61314B00225A61304B00229A61E8
:100684002E4801F0C3FE0346002B01D000F0F2FA1D
:1006940000233B6400237B6407F140031946274889
:1006A40001F0E6FD0346002B01D000F0E3FA6023DD
:1006B4007B620023BB620023FB6200233B630023B5
:1006C4007B630023BB630023FB6307F12403002245
:1006D40019461A4801F090FF0346002B01D000F0A0
:1006E400C9FA07F124030C221946144801F084FFC7
:1006F4000346002B01D000F0BDFA00237B600023E9
:10070400BB600023FB6000233B6100237B614FF44B
:100714000053BB6100233B623B1D1946074801F0AF
:1007240023FE0346002B01D000F0A4FA034800F096
:10073400EDFB00BF4837BD4680BD00BF2800002048
:100744000000014080B58CB000AF07F10C032422F7
:100754000021184602F0DEFD3B1D00221A605A609B
:10076400214B4FF080421A601F4B00225A601E4BEF
:1007740000229A601C4B4FF0FF32DA601A4B0022C1
:100784001A61194B00229A610123FB6000233B612B
:1007940001237B610023BB610023FB6100233B62D7
:1007A40001237B620023BB620023FB6207F10C037D
:1007B40019460D4801F079FE0346002B01D000F0E4
:1007C40059FA00237B600023BB603B1D1946064891
:1007D40001F04EFD0346002B01D000F04BFA00BFA0
:1007E4003037BD4680BD00BF7000002080B58CB09E
:1007F40000AF07F10C0324220021184602F08AFD01
:100804003B1D00221A605A60204B214A1A601F4B7C
:1008140000225A601D4B00229A601C4B4FF6FF7257
:10082400DA601A4B00221A61184B00229A610123E4
:10083400FB6000233B6101237B610023BB61002338
:10084400FB6100233B6201237B620023BB62002324
:10085400FB6207F10C0319460C4801F026FE03461F
:10086400002B01D000F006FA00237B600023BB605C
:100874003B1D1946054801F0FBFC0346002B01D043
:1008840000F0F8F900BF3037BD4680BDB800002045
:100894000004004080B58CB000AF07F10C032422A3
:1008A4000021184602F036FD3B1D00221A605A60F2
:1008B400204B214A1A601F4B00225A601D4B002214
:1008C4009A601C4B4FF6FF72DA601A4B00221A61D1
:1008D400184B00229A610123FB6000233B61012332
:1008E4007B610023BB610023FB6100233B62012386
:1008F4007B620023BB620023FB6207F10C031946F1
:100904000C4801F0D2FD0346002B01D000F0B2F9EF
:1009140000237B600023BB603B1D1946054801F0A2
:10092400A7FC0346002B01D000F0A4F900BF303728
:10093400BD4680BD000100200008004080B58AB09B
:1009440000AF07F1200300221A605A603B1D002209
:100954001A605A609A60DA601A615A619A61274B88
:10096400274A1A60254B00225A60244B00229A60C1
:10097400224B4FF0FF32DA60204B00221A611F4BEA
:1009840000229A611D4801F041FD0346002B01D06D
:1009940000F070F900233B6200237B6207F120031F
:1009A4001946164801F064FC0346002B01D000F000
:1009B40061F960237B600023BB600023FB6000239C
:1009C4007B613B1D002219460C4801F015FE0346CD
:1009D400002B01D000F04EF93B1D042219460748B4
:1009E40001F00AFE0346002B01D000F043F903484E
:1009F40000F08CFA00BF2837BD4680BD48010020B6
:100A0400000C004080B592B000AF07F14003002213
:100A14001A605A6007F1240300221A605A609A602F
:100A2400DA601A615A619A613B1D2022002118463E
:100A340002F070FC394B3A4A1A60384B00225A6073
:100A4400364B00229A60354B4FF6FF72DA60334B17
:100A540000221A61314B00225A61304B00229A6104
:100A64002E4801F0D3FC0346002B01D000F002F91C
:100A740000233B6400237B6407F1400319462748A5
:100A840001F0F6FB0346002B01D000F0F3F86023DD
:100A94007B620023BB620023FB6200233B630023D1
:100AA4007B630023BB630023FB6307F12403002261
:100AB40019461A4801F0A0FD0346002B01D000F0AE
:100AC400D9F807F1240304221946144801F094FDCF
:100AD4000346002B01D000F0CDF800237B600023F7
:100AE400BB600023FB6000233B6100237B614FF468
:100AF4000053BB6100233B623B1D1946074801F0CC
:100B040033FC0346002B01D000F0B4F8034800F096
:100B1400FDF900BF4837BD4680BD00BF90010020ED
:100B24000004014080B500AF114B124A1A60104B0B
:100B34004FF4E1325A600E4B00229A600C4B0022B3
:100B4400DA600B4B00221A61094B0C225A61084BE4
:100B540000229A61064B0022DA61054802F05EF831
:100B64000346002B01D000F085F800BF80BD00BF14
:100B7400D80100200010014080B58AB000AF07F111
:100B8400140300221A605A609A60DA601A61002322
:100B94003B61354B1B6B344A43F004031363324B04
:100BA4001B6B03F004033B613B690023FB602E4B8A
:100BB4001B6B2D4A43F0800313632B4B1B6B03F019
:100BC4008003FB60FB680023BB60274B1B6B264A3A
:100BD40043F001031363244B1B6B03F00103BB605D
:100BE400BB6800237B60204B1B6B1F4A43F002034E
:100BF40013631D4B1B6B03F002037B607B680022B5
:100C040020211A4800F032FD4FF400537B614FF469
:100C14000413BB610023FB6107F114031946144854
:100C240000F090FB0C237B610223BB610023FB617A
:100C340003233B6207237B6207F1140319460B4825
:100C440000F080FB20237B610123BB610023FB6157
:100C540000233B6207F114031946044800F072FBB9
:100C640000BF2837BD4680BD003802400000024066
:100C74000008024080B400AF72B600BFFEE7000077
:100C840080B582B000AF00237B60104B5B6C0F4AD1
:100C940043F4804353640D4B5B6C03F480437B60EB
:100CA4007B6800233B60094B1B6C084A43F080536C
:100CB4001364064B1B6C03F080533B603B680720B6
:100CC40000F00CFB00BF0837BD4680BD0038024071
:100CD40080B487B000AF78607B681B681F4A93427A
:100CE4000ED100237B611E4B5B6C1D4A43F0010354
:100CF40053641B4B5B6C03F001037B617B6926E04F
:100D04007B681B68174A93420ED100233B61144B46
:100D14001B6C134A43F008031364114B1B6C03F060
:100D240008033B613B6912E07B681B680E4A9342EF
:100D34000DD10023FB600A4B5B6C094A43F00203AC
:100D44005364074B5B6C03F00203FB60FB6800BF5A
:100D54001C37BD465DF8047B704700BF00000140AE
:100D640000380240000C00400004014080B58EB001
:100D740000AF786007F1240300221A605A609A6079
:100D8400DA601A617B681B68B3F1804F4CD1002391
:100D94003B62594B1B6C584A43F001031364564B96
:100DA4001B6C03F001033B623B6A0023FB61524B63
:100DB4001B6B514A43F0010313634F4B1B6B03F04E
:100DC4000103FB61FB690023BB614B4B1B6B4A4A6C
:100DD40043F002031363484B1B6B03F00203BB6134
:100DE400BB694FF400437B620223BB620023FB62B6
:100DF40000233B6301237B6307F1240319463F4827
:100E040000F0A0FA4FF400737B620223BB6200235C
:100E1400FB6200233B6301237B6307F12403194630
:100E2400374800F08FFA62E07B681B68354A9342CA
:100E34002CD100237B61304B1B6C2F4A43F00203FF
:100E440013642D4B1B6C03F002037B617B6900234D
:100E54003B61294B1B6B284A43F001031363264B68
:100E64001B6B03F001033B613B69C0237B620223DC
:100E7400BB620023FB6200233B6302237B6307F115
:100E8400240319461D4800F05DFA30E07B681B68B6
:100E94001D4A93422BD10023FB60174B1B6C164A4F
:100EA40043F004031364144B1B6C03F00403FB6052
:100EB400FB680023BB60104B1B6B0F4A43F002031B
:100EC40013630D4B1B6B03F00203BB60BB68C023B1
:100ED4007B620223BB620023FB6200233B63022389
:100EE4007B6307F124031946054800F02BFA00BF81
:100EF4003837BD4680BD00BF0038024000000240C4
:100F040000040240000400400008004080B58AB09C
:100F140000AF786007F1140300221A605A609A60E7
:100F2400DA601A617B681B68364A93421FD100233A
:100F34003B61354B1B6B344A43F001031363324B63
:100F44001B6B03F001033B613B694FF410637B614E
:100F54000223BB610023FB6100233B6201237B620C
:100F640007F114031946294800F0ECF946E07B68C0
:100F74001B68274A93421ED10023FB60224B1B6B44
:100F8400214A43F0010313631F4B1B6B03F001035E
:100F9400FB60FB6803237B610223BB610023FB61CD
:100FA40000233B6202237B6207F1140319461748AE
:100FB40000F0C8F922E07B681B68164A93421DD1F1
:100FC4000023BB60104B1B6B0F4A43F004031363F5
:100FD4000D4B1B6B03F00403BB60BB68C0237B6138
:100FE4000223BB610023FB6100233B6203237B627A
:100FF40007F114031946084800F0A4F900BF283784
:10100400BD4680BD0000014000380240000002409F
:10101400000C0040000401400008024080B58AB082
:1010240000AF786007F1140300221A605A609A60D6
:10103400DA601A617B681B68194A93422CD1002339
:101044003B61184B5B6C174A43F010035364154B18
:101054005B6C03F010033B613B690023FB60114BA5
:101064001B6B104A43F0010313630E4B1B6B03F01D
:101074000103FB60FB684FF4C0637B610223BB6127
:101084000023FB6103233B6207237B6207F1140304
:101094001946054800F056F900BF2837BD4680BD03
:1010A40000100140003802400000024080B400AF4C
:1010B400FEE780B400AFFEE780B400AFFEE780B483
:1010C40000AFFEE780B400AFFEE780B400AF00BF1E
:1010D400BD465DF8047B704780B400AF00BFBD46D9
:1010E4005DF8047B704780B400AF00BFBD465DF877
:1010F400047B704780B500AF02F0A4F800BF80BD48
:1011040080B400AF064BD3F88830054A43F470032B
:10111400C2F8883000BFBD465DF8047B704700BF4D
:1011240000ED00E0DFF834D00D480E490E4A0023EC
:1011340002E0D458C4500433C4188C42F9D30B4A87
:101144000B4C002301E013600432A242FBD3FFF7EF
:10115400D7FF02F0BBF8FFF7D5F970470000022073
:10116400000000200C000020683300080C00002060
:1011740020020020FEE7000080B485B000AF786054
:101184007B6803F00703FB600C4BDB68BB60BA6849
:101194004FF6FF031340BB60FB681A02BB6813439E
:1011A40043F0BF6343F40033BB60044ABB68D360BD
:1011B40000BF1437BD465DF8047B704700ED00E0C6
:1011C40080B400AF044BDB681B0A03F00703184626
:1011D400BD465DF8047B704700ED00E080B483B049
:1011E40000AF03463960FB7197F90730002B0ADB27
:1011F4003B68DAB20C4997F907301201D2B20B44BA
:1012040083F800230AE03B68DAB20849FB7903F06B
:101214000F03043B1201D2B20B441A7600BF0C3701
:10122400BD465DF8047B704700E100E000ED00E09E
:1012340080B489B000AFF860B9607A60FB6803F0ED
:101244000703FB61FB69C3F10703042B28BF0423D5
:10125400BB61FB690433062B02D9FB69033B00E045
:1012640000237B614FF0FF32BB6902FA03F3DA43D8
:10127400BB681A407B699A404FF0FF317B6901FAE1
:1012840003F3D9437B680B40134318462437BD4608
:101294005DF8047B7047000080B582B000AF7860D1
:1012A4007B68013BB3F1807F01D301230FE00A4A3D
:1012B4007B68013B53600F214FF0FF30FFF78EFF37
:1012C400054B00229A60044B07221A60002318463B
:1012D4000837BD4680BD00BF10E000E080B582B095
:1012E40000AF78607868FFF747FF00BF0837BD4656
:1012F40080BD80B586B000AF0346B9607A60FB73E9
:1013040000237B61FFF75CFF78617A68B9687869CC
:10131400FFF78EFF024697F90F3011461846FFF784
:101324005DFF00BF1837BD4680BD80B582B000AFF9
:1013340078607868FFF7B0FF034618460837BD4663
:1013440080BD000080B489B000AF786039600023AC
:101354007B6100233B610023BB610023FB6165E1EA
:101364000122FB6902FA03F37B613B681B687A691B
:1013740013403B613A697B699A4240F054813B686F
:101384005B6803F00303012B05D03B685B6803F043
:101394000303022B30D17B689B68BB61FB695B0054
:1013A400032202FA03F3DB43BA691340BB613B68CF
:1013B400DA68FB695B0002FA03F3BA691343BB61A1
:1013C4007B68BA699A607B685B68BB610122FB69D0
:1013D40002FA03F3DB43BA691340BB613B685B6801
:1013E4001B0903F00102FB6902FA03F3BA69134310
:1013F400BB617B68BA695A603B685B6803F00303AE
:10140400032B17D07B68DB68BB61FB695B0003229D
:1014140002FA03F3DB43BA691340BB613B689A6881
:10142400FB695B0002FA03F3BA691343BB617B688F
:10143400BA69DA603B685B6803F00303022B23D1CB
:10144400FB69DA087B68083253F82230BB61FB6918
:1014540003F007039B000F2202FA03F3DB43BA698C
:101464001340BB613B681A69FB6903F007039B00E7
:1014740002FA03F3BA691343BB61FB69DA087B68B8
:101484000832B96943F822107B681B68BB61FB69A9
:101494005B00032202FA03F3DB43BA691340BB6126
:1014A4003B685B6803F00302FB695B0002FA03F329
:1014B400BA691343BB617B68BA691A603B685B68AD
:1014C40003F44033002B00F0AE800023FB605D4B3F
:1014D4005B6C5C4A43F4804353645A4B5B6C03F487
:1014E4008043FB60FB68584AFB699B08023352F84F
:1014F4002330BB61FB6903F003039B000F2202FA54
:1015040003F3DB43BA691340BB617B684F4A9342E0
:1015140025D07B684E4A93421FD07B684D4A934244
:1015240019D07B684C4A934213D07B684B4A934250
:101534000DD07B684A4A934207D07B68494A93425C
:1015440001D106230CE007230AE0052308E0042365
:1015540006E0032304E0022302E0012300E0002369
:10156400FA6902F0030292009340BA691343BB6123
:101574003549FB699B080233BA6941F823203A4B89
:101584009B68BB613B69DB43BA691340BB613B6841
:101594005B6803F48013002B03D0BA693B691343DF
:1015A400BB61314ABB6993602F4BDB68BB613B690C
:1015B400DB43BA691340BB613B685B6803F4001307
:1015C400002B03D0BA693B691343BB61264ABB694C
:1015D400D360254B5B68BB613B69DB43BA6913404D
:1015E400BB613B685B6803F40033002B03D0BA692A
:1015F4003B691343BB611C4ABB6953601A4B1B68AC
:10160400BB613B69DB43BA691340BB613B685B6800
:1016140003F48033002B03D0BA693B691343BB61E5
:10162400114ABB691360FB690133FB61FB690F2B32
:101634007FF696AE00BF00BF2437BD465DF8047B3D
:10164400704700BF003802400038014000000240EB
:101654000004024000080240000C02400010024056
:101664000014024000180240003C014080B483B0E2
:1016740000AF78600B467B8013467B707B78002B31
:1016840003D07A887B689A6103E07B881A047B68BC
:101694009A6100BF0C37BD465DF8047B70470000BB
:1016A4002DE9B04FAEB000AF0023C7F8AC30002333
:1016B400C7F8B4300023C7F8A8300023C7F8A43013
:1016C4000023C7F8B030CB4B9B6803F00C030C2B02
:1016D40000F2068201A252F823F000BF1517000899
:1016E400E51A0008E51A0008E51A00081D170008A5
:1016F400E51A0008E51A0008E51A0008251700088D
:10170400E51A0008E51A0008E51A0008151900088A
:10171400B94BC7F8B030E7E1B84BC7F8B030E3E1F4
:10172400B44B5B6803F03F03C7F8AC30B14B5B6864
:1017340003F48003002B71D0AE4B5B689B0900223D
:10174400C7F89830C7F89C20D7F89830C3F308033B
:10175400C7F890300023C7F89430D7E924452246CF
:101764002B464FF000004FF00001590141EAD261CD
:10177400500102460B462146511A3964294663EB4F
:1017840001037B644FF000024FF00003D7E9108996
:1017940049468B01414643EA916341468A014146E9
:1017A400511AB963494663EB0103FB634FF000022E
:1017B4004FF00003D7E90E894946CB00414643EA7E
:1017C40051734146CA0010461946034622469B18E7
:1017D4003B632B460A4642EB03037B634FF0000254
:1017E4004FF00003D7E90C4529464B02214643EA52
:1017F400D15321464A0210461946D7F8AC3000228C
:10180400C7F88830C7F88C20D7E92223FEF7F8FC04
:1018140002460B461346C7F8B43067E0754B5B6865
:101824009B090022C7F88030C7F88420D7F880309D
:10183400C3F30803BB670023FB67D7E91E452246B1
:101844002B464FF000004FF00001590141EAD261EC
:10185400500102460B462146511AB962294663EBF0
:101864000103FB624FF000024FF00003D7E90A893D
:1018740049468B01414643EA916341468A01414608
:10188400B2EB010A494663EB010B4FF000024FF043
:1018940000034FEACB0343EA5A734FEACA02924663
:1018A4009B4623461AEB03033B622B464BEB030395
:1018B4007B624FF000024FF00003D7E90845294648
:1018C4008B02214643EA915321468A021046194667
:1018D400D7F8AC3000223B677A67D7E91C23FEF7C0
:1018E4008FFC02460B461346C7F8B430414B5B6885
:1018F4001B0C03F0030301335B00C7F8A830D7F8CF
:10190400B420D7F8A830B2FBF3F3C7F8B030EBE05B
:10191400384B5B6803F03F03C7F8AC30354B5B686A
:1019240003F48003002B6BD0324B5B689B090022CD
:10193400BB66FA66BB6EC3F308033B6600237B6693
:10194400D7E9184522462B464FF000004FF000011E
:10195400590141EAD261500102460B462146511A0F
:10196400B961294663EB0103FB614FF000024FF0BC
:101974000003D7E906AB59468B01514643EA91630C
:1019840051468A015146B2EB0108594663EB0109FD
:101994004FF000024FF000034FEAC90343EA5873C3
:1019A4004FEAC80290469946234618EB03033B616D
:1019B4002B4649EB03037B614FF000024FF0000319
:1019C400D7E9044529464B02214643EAD15321462F
:1019D4004A0210461946D7F8AC300022BB65FA65B6
:1019E400D7E91623FEF70CFC02460B461346C7F84C
:1019F400B43065E0003802400024F40000127A009C
:101A04003D4B5B689B09002218461146C0F308034E
:101A14003B6500237B65D7E9148942464B464FF06A
:101A240000004FF00001590141EAD2615001024621
:101A34000B464146511AB960494663EB0103FB600A
:101A44004FF000024FF00003D7E902AB59468B0177
:101A5400514643EA916351468A015146541A594604
:101A640063EB01054FF000024FF00003EB0043EA83
:101A74005473E20014461D464346E3183B604B464C
:101A840045EB03037B604FF000024FF00003D7E9FE
:101A9400004529468B02214643EA915321468A0296
:101AA40010461946D7F8AC300022BB64FA64D7E973
:101AB4001223FEF7A5FB02460B461346C7F8B430C3
:101AC4000D4B5B681B0F03F00703C7F8A430D7F86E
:101AD400B420D7F8A430B2FBF3F3C7F8B03003E076
:101AE400064BC7F8B03000BFD7F8B0301846B83747
:101AF400BD46BDE8B08F00BF003802400024F400AA
:101B040080B586B000AF78607B68002B01D10123DB
:101B14008DE27B681B6803F00103002B00F08380D7
:101B2400944B9B6803F00C03042B19D0914B9B68D6
:101B340003F00C03082B06D18E4B5B6803F480037F
:101B4400B3F5800F0CD08B4B9B6803F00C030C2B6C
:101B540012D1884B5B6803F48003B3F5800F0BD17B
:101B6400844B1B6803F40033002B5BD07B685B68F9
:101B7400002B57D101235AE27B685B68B3F5803FA1
:101B840006D17C4B1B687B4A43F4803313601DE011
:101B94007B685B68B3F5A02F0CD1764B1B68754A44
:101BA40043F480231360734B1B68724A43F48033FD
:101BB40013600BE06F4B1B686E4A23F48033136091
:101BC4006C4B1B686B4A23F4802313607B685B684F
:101BD400002B13D001F04AFB386108E001F046FB0A
:101BE40002463B69D31A642B01D903231FE2614BDC
:101BF4001B6803F40033002BF0D014E001F036FB33
:101C0400386108E001F032FB02463B69D31A642BC9
:101C140001D903230BE2574B1B6803F40033002B59
:101C2400F0D100E000BF7B681B6803F00203002BC7
:101C34006FD0504B9B6803F00C03002B17D04D4B17
:101C44009B6803F00C03082B05D14A4B5B6803F433
:101C54008003002B0BD0474B9B6803F00C030C2B29
:101C64001CD1444B5B6803F48003002B16D1414B19
:101C74001B6803F00203002B05D07B68DB68012B93
:101C840001D00123D3E13B4B1B6823F0F8027B68AE
:101C94001B69DB00374913430B603AE07B68DB6860
:101CA400002B20D0344B01221A6001F0DFFA386196
:101CB40008E001F0DBFA02463B69D31A022B01D992
:101CC4000323B4E12B4B1B6803F00203002BF0D079
:101CD400284B1B6823F0F8027B681B69DB0025494D
:101CE40013430B6015E0244B00221A6001F0BEFA86
:101CF400386108E001F0BAFA02463B69D31A022BB4
:101D040001D9032393E11B4B1B6803F00203002B4F
:101D1400F0D17B681B6803F00803002B36D07B6886
:101D24005B69002B16D0154B01221A6001F09EFA54
:101D3400386108E001F09AFA02463B69D31A022B93
:101D440001D9032373E10B4B5B6F03F00203002BF8
:101D5400F0D01BE0094B00221A6001F087FA3861C9
:101D64000EE001F083FA02463B69D31A022B07D92D
:101D740003235CE10038024000004742800E4742E2
:101D84008A4B5B6F03F00203002BEAD17B681B686C
:101D940003F00403002B00F097800023FB75834BB2
:101DA4001B6C03F08053002B0FD10023BB607F4BCF
:101DB4001B6C7E4A43F0805313647C4B1B6C03F012
:101DC4008053BB60BB680123FB75794B1B6803F42C
:101DD4008073002B18D1764B1B68754A43F48073CB
:101DE400136001F043FA386108E001F03FFA02465B
:101DF4003B69D31A022B01D9032318E16C4B1B68EE
:101E040003F48073002BF0D07B689B68012B06D110
:101E1400664B1B6F654A43F0010313671CE07B6844
:101E24009B68052B0CD1614B1B6F604A43F0040384
:101E340013675E4B1B6F5D4A43F0010313670BE0AE
:101E44005A4B1B6F594A23F001031367574B1B6FFF
:101E5400564A23F0040313677B689B68002B15D054
:101E640001F004FA38610AE001F000FA02463B6925
:101E7400D31A41F28832934201D90323D7E04B4B62
:101E84001B6F03F00203002BEED014E001F0EEF917
:101E940038610AE001F0EAF902463B69D31A41F2DB
:101EA4008832934201D90323C1E0404B1B6F03F0F6
:101EB4000203002BEED1FB7D012B05D13B4B1B6CA8
:101EC4003A4A23F0805313647B689B69002B00F02B
:101ED400AD80364B9B6803F00C03082B60D07B6805
:101EE4009B69022B45D1334B00221A6001F0BEF9E5
:101EF400386108E001F0BAF902463B69D31A022BB3
:101F040001D9032393E0294B1B6803F00073002BD2
:101F1400F0D17B68DA697B681B6A1A437B685B6A69
:101F24009B011A437B689B6A5B08013B1B041A43B1
:101F34007B68DB6A1B061A437B681B6B1B071B4908
:101F440013434B601B4B01221A6001F08FF9386177
:101F540008E001F08BF902463B69D31A022B01D940
:101F6400032364E0114B1B6803F00073002BF0D0D3
:101F74005CE0104B00221A6001F078F9386108E047
:101F840001F074F902463B69D31A022B01D90323E9
:101F94004DE0064B1B6803F00073002BF0D145E0C5
:101FA4007B689B69012B07D1012340E00038024084
:101FB40000700040600047421F4B5B68FB607B6819
:101FC4009B69012B30D0FB6803F480027B68DB69DA
:101FD4009A4229D1FB6803F03F027B681B6A9A424C
:101FE40022D1FA6847F6C07313407A68526A9201A4
:101FF400934219D1FB6803F440327B689B6A5B0807
:10200400013B1B049A420FD1FB6803F070627B68AA
:10201400DB6A1B069A4207D1FB6803F0E0427B6847
:102024001B6B1B079A4201D0012300E000231846D2
:102034001837BD4680BD00BF0038024080B584B06B
:1020440000AF786039607B68002B01D10123CCE0BC
:10205400684B1B6803F00F033A689A420CD9654B2E
:102064003A68D2B21A70634B1B6803F00F033A68E4
:102074009A4201D00123B8E07B681B6803F0020395
:10208400002B20D07B681B6803F00403002B05D0D1
:10209400594B9B68584A43F4E05393607B681B6830
:1020A40003F00803002B05D0534B9B68524A43F4BA
:1020B40060439360504B9B6823F0F0027B689B68FD
:1020C4004D4913438B607B681B6803F00103002BAD
:1020D40044D07B685B68012B07D1474B1B6803F432
:1020E4000033002B19D101237FE07B685B68022B4E
:1020F40003D07B685B68032B07D13F4B1B6803F05D
:102104000073002B09D101236FE03B4B1B6803F0E4
:102114000203002B01D1012367E0374B9B6823F0B6
:1021240003027B685B68344913438B6001F09EF8BB
:10213400F8600AE001F09AF80246FB68D31A41F20B
:102144008832934201D903234FE02B4B9B6803F061
:102154000C027B685B689B009A42EBD1254B1B68A1
:1021640003F00F033A689A420CD2224B3A68D2B277
:102174001A70204B1B6803F00F033A689A4201D08F
:10218400012332E07B681B6803F00403002B08D0B2
:10219400194B9B6823F4E0527B68DB6816491343B0
:1021A4008B607B681B6803F00803002B09D0124B7B
:1021B4009B6823F460427B681B69DB000E49134370
:1021C4008B60FFF76DFA02460B4B9B681B0903F00B
:1021D4000F030A49CB5C22FA03F3094A1360094B43
:1021E4001B68184600F0FEFF002318461037BD4652
:1021F40080BD00BF003C024000380240403300086C
:10220400000000200400002080B400AF034B1B68D2
:102214001846BD465DF8047B704700BF00000020EF
:1022240080B500AFFFF7F0FF0246054B9B689B0AA1
:1022340003F007030349CB5C22FA03F3184680BD7D
:10224400003802405033000880B500AFFFF7DCFFD0
:102254000246054B9B685B0B03F007030349CB5C09
:1022640022FA03F3184680BD0038024050330008B8
:1022740080B485B000AF786039607B6893F83C30F7
:10228400012B01D102235AE07B68012283F83C2010
:102294007B68022283F83D207B681B685B68FB60D7
:1022A4007B681B689B68BB60FB6823F07003FB6062
:1022B4003B681B68FA681343FB607B681B68FA6819
:1022C4005A607B681B68214A934222D07B681B6852
:1022D400B3F1804F1DD07B681B681D4A934218D010
:1022E4007B681B681B4A934213D07B681B681A4A9D
:1022F40093420ED07B681B68184A934209D07B68CE
:102304001B68174A934204D07B681B68154A9342A2
:102314000CD1BB6823F08003BB603B685B68BA6880
:102324001343BB607B681B68BA689A607B680122B0
:1023340083F83D207B68002283F83C200023184664
:102344001437BD465DF8047B704700BF00000140B0
:102354000004004000080040000C0040000401405C
:10236400004001400018004080B485B000AF7860A0
:1023740039600023FB607B6893F83C30012B01D16A
:1023840002233DE07B68012283F83C20FB6823F0B4
:10239400FF023B68DB681343FB60FB6823F4407275
:1023A4003B689B681343FB60FB6823F480623B68D3
:1023B4005B681343FB60FB6823F400623B681B68A3
:1023C4001343FB60FB6823F480523B681B6913438F
:1023D400FB60FB6823F400523B685B691343FB60BA
:1023E400FB6823F480423B68DB691343FB607B6832
:1023F4001B68FA685A647B68002283F83C20002337
:1024040018461437BD465DF8047B704780B582B02A
:1024140000AF78607B68002B01D1012341E07B6829
:1024240093F83D30DBB2002B06D17B68002283F8A1
:102434003C207868FEF74CFC7B68022283F83D2040
:102444007B681A687B6804331946104600F096F9D5
:102454007B68012283F846207B68012283F83E20B2
:102464007B68012283F83F207B68012283F84020A7
:102474007B68012283F841207B68012283F8422093
:102484007B68012283F843207B68012283F844207F
:102494007B68012283F845207B68012283F83D2074
:1024A400002318460837BD4680BD80B586B000AF0E
:1024B400786039607B68002B01D1012397E07B6849
:1024C40093F83D30DBB2002B06D17B68002283F801
:1024D4003C207868FEF74AFC7B68022283F83D20A2
:1024E4007B681B689B687A68126823F4804323F036
:1024F400070393607B681A687B68043319461046A7
:1025040000F03CF97B681B689B687B617B681B68F7
:102514009B693B617B681B681B6AFB603B681B68AB
:102524007A6913437B613B6923F4407323F003030B
:102534003B613B689A683B689B691B0213433A6999
:1025440013433B613B6923F4406323F00C033B6179
:102554003B6923F4704323F0F0033B613B68DA6882
:102564003B68DB691B0213433A6913433B613B68D5
:102574001B691A013B681B6A1B0313433A69134323
:102584003B61FB6823F02203FB60FB6823F08803B4
:10259400FB603B685A683B685B691B011343FA683C
:1025A4001343FB607B681B687A699A607B681B68CD
:1025B4003A699A617B681B68FA681A627B6801222F
:1025C40083F846207B68012283F83E207B68012241
:1025D40083F83F207B68012283F842207B68012234
:1025E40083F843207B68012283F83D2000231846AA
:1025F4001837BD4680BD000080B586B000AFF860D6
:10260400B9607A600023FB75FB6893F83C30012BBA
:1026140001D10223AEE0FB68012283F83C207B68F1
:102624000C2B00F29F8001A252F823F065260008CB
:10263400692700086927000869270008A5260008FB
:10264400692700086927000869270008E7260008A9
:102654006927000869270008692700082727000858
:10266400FB681B68B968184600F028F9FB681B680A
:102674009A69FB681B6842F008029A61FB681B6850
:102684009A69FB681B6822F004029A61FB681B6864
:102694009969BB681A69FB681B680A439A6164E01C
:1026A400FB681B68B968184600F078F9FB681B687A
:1026B4009A69FB681B6842F400629A61FB681B68B4
:1026C4009A69FB681B6822F480629A61FB681B6844
:1026D4009969BB681B691A02FB681B680A439A6103
:1026E40043E0FB681B68B968184600F0CDF9FB6845
:1026F4001B68DA69FB681B6842F00802DA61FB6850
:102704001B68DA69FB681B6822F00402DA61FB6863
:102714001B68D969BB681A69FB681B680A43DA61DC
:1027240023E0FB681B68B968184600F021FAFB68CF
:102734001B68DA69FB681B6842F40062DA61FB68B3
:102744001B68DA69FB681B6822F48062DA61FB6843
:102754001B68D969BB681B691A02FB681B680A43BA
:10276400DA6102E00123FB7500BFFB68002283F8F5
:102774003C20FB7D18461837BD4680BD80B485B02B
:1027840000AF786039607B681B68FB607B68404AF7
:10279400934213D07B68B3F1804F0FD07B683D4ADE
:1027A40093420BD07B683C4A934207D07B683B4AF8
:1027B400934203D07B683A4A934208D1FB6823F0E2
:1027C4007003FB603B685B68FA681343FB607B68DB
:1027D4002F4A93422BD07B68B3F1804F27D07B687C
:1027E4002C4A934223D07B682B4A93421FD07B68A8
:1027F4002A4A93421BD07B68294A934217D07B68AC
:10280400284A934213D07B68274A93420FD07B68AF
:10281400264A93420BD07B68254A934207D07B68B3
:10282400244A934203D07B68234A934208D1FB682D
:1028340023F44073FB603B68DB68FA681343FB6076
:10284400FB6823F080023B685B691343FB607B6891
:10285400FA681A603B689A687B68DA623B681A68AF
:102864007B689A627B680A4A934203D07B680C4A6D
:10287400934203D13B681A697B681A637B6801221F
:102884005A6100BF1437BD465DF8047B704700BF32
:10289400000001400004004000080040000C00401B
:1028A4000004014000400140004401400048014050
:1028B40000180040001C00400020004080B487B095
:1028C40000AF786039607B681B6A23F001027B6883
:1028D4001A627B681B6A7B617B685B683B617B680F
:1028E4009B69FB60FB6823F07003FB60FB6823F0CB
:1028F4000303FB603B681B68FA681343FB607B6956
:1029040023F002037B613B689B687A6913437B6114
:102914007B68204A934203D07B681F4A93420CD1C0
:102924007B6923F008037B613B68DB687A691343A6
:102934007B617B6923F004037B617B68154A9342C6
:1029440003D07B68144A934211D13B6923F480730A
:102954003B613B6923F400733B613B685B693A6903
:1029640013433B613B689B693A6913433B617B6852
:102974003A695A607B68FA689A613B685A687B686E
:102984005A637B687A691A6200BF1C37BD465DF8DA
:10299400047B7047000001400004014080B487B00C
:1029A40000AF786039607B681B6A23F010027B6893
:1029B4001A627B681B6A7B617B685B683B617B682E
:1029C4009B69FB60FB6823F4E043FB60FB6823F432
:1029D4004073FB603B681B681B02FA681343FB608F
:1029E4007B6923F020037B613B689B681B017A6948
:1029F40013437B617B68224A934203D07B68214A5C
:102A040093420DD17B6923F080037B613B68DB68D3
:102A14001B017A6913437B617B6923F040037B616B
:102A24007B68174A934203D07B68164A934213D1BA
:102A34003B6923F480633B613B6923F400633B619E
:102A44003B685B699B003A6913433B613B689B6944
:102A54009B003A6913433B617B683A695A607B681F
:102A6400FA689A613B685A687B689A637B687A69FA
:102A74001A6200BF1C37BD465DF8047B704700BF77
:102A8400000001400004014080B487B000AF7860CA
:102A940039607B681B6A23F480727B681A627B68E6
:102AA4001B6A7B617B685B683B617B68DB69FB60FD
:102AB400FB6823F07003FB60FB6823F00303FB60F7
:102AC4003B681B68FA681343FB607B6923F400735B
:102AD4007B613B689B681B027A6913437B617B685B
:102AE400214A934203D07B68204A93420DD17B69EB
:102AF40023F400637B613B68DB681B027A69134340
:102B04007B617B6923F480637B617B68164A934213
:102B140003D07B68154A934213D13B6923F4805355
:102B24003B613B6923F400533B613B685B691B01D8
:102B34003A6913433B613B689B691B013A69134340
:102B44003B617B683A695A607B68FA68DA613B6882
:102B54005A687B68DA637B687A691A6200BF1C373B
:102B6400BD465DF8047B704700000140000401404D
:102B740080B487B000AF786039607B681B6A23F447
:102B840080527B681A627B681B6A3B617B685B6866
:102B94007B617B68DB69FB60FB6823F4E043FB60DB
:102BA400FB6823F44073FB603B681B681B02FA68F4
:102BB4001343FB603B6923F400533B613B689B6810
:102BC4001B033A6913433B617B68124A934203D067
:102BD4007B68114A934209D17B6923F480437B616A
:102BE4003B685B699B017A6913437B617B687A6903
:102BF4005A607B68FA68DA613B685A687B681A64D1
:102C04007B683A691A6200BF1C37BD465DF8047BD5
:102C1400704700BF000001400004014080B582B04D
:102C240000AF78607B68002B01D101233FE07B6813
:102C340093F83D30DBB2002B06D17B68002283F889
:102C44003C207868FEF7EAF97B68242283F83D206B
:102C54007B681B68DA687B681B6822F40052DA60C0
:102C6400786800F029F87B681B681A697B681B6820
:102C740022F490421A617B681B685A697B681B685E
:102C840022F02A025A617B681B68DA687B681B6839
:102C940042F40052DA607B6800221A647B682022C6
:102CA40083F83D207B68202283F83E2000231846C9
:102CB4000837BD4680BD00002DE9B04FC0B000AF5D
:102CC400C7F8F400D7F8F4301B681B6923F44050AC
:102CD400D7F8F430D968D7F8F4301A6840EA010319
:102CE4001361D7F8F4309A68D7F8F4301B691A43A3
:102CF400D7F8F4305B691A43D7F8F430DB6913432F
:102D0400C7F8F830D7F8F4301B68DB6823F41641B1
:102D140021F00C01D7F8F4301A68D7F8F8300B43D7
:102D2400D360D7F8F4301B685B6923F44070D7F89C
:102D3400F4309969D7F8F4301A6840EA0103536112
:102D4400D7F8F4301A688F4B9A4205D0D7F8F4308C
:102D54001A688D4B9A4204D1FFF776FAC7F8FC0043
:102D640003E0FFF75DFAC7F8FC00D7F8F430DB693D
:102D7400B3F5004F40F00C81D7F8FC300022C7F8BF
:102D8400E830C7F8EC20D7E93A4522462B4691189B
:102D9400B9655B41FB65D7E91623214612EB0108AF
:102DA400294643EB01094FF000024FF000034FEABC
:102DB400C90343EA58734FEAC8029046994623462A
:102DC40018EB0303C7F8E0302B4649EB0303C7F8BD
:102DD400E430D7F8F4305B680022C7F8D830C7F87D
:102DE400DC20D7E936120B46DB183B65134642EB71
:102DF40003037B65D7E91423D7E93801FDF700FA0B
:102E040002460B46614BA3FB02235B091C01D7F866
:102E1400FC300022C7F8D030C7F8D420D7E9348971
:102E240042464B469118B9645B41FB64D7E91223CF
:102E3400414612EB010A494643EB010B4FF00002F5
:102E44004FF000034FEACB0343EA5A734FEACA0236
:102E540092469B4643461AEB0303C7F8C8304B46D9
:102E64004BEB0303C7F8CC30D7F8F4305B6800228F
:102E7400C7F8C030C7F8C420D7E930120B46DB18B6
:102E84003B64134642EB03037B64D7E91023D7E981
:102E94003201FDF7B5F902460B4611463B4BA3FB45
:102EA40001235B09642202FB03F3CB1ADB0003F169
:102EB4003202364BA3FB02235B095B0003F4F87375
:102EC4001C44D7F8FC300022C7F8B830C7F8BC203F
:102ED400D7E92E8942464B469118B9635B41FB639F
:102EE400D7E90E2341465118396349464B417B6368
:102EF4004FF000024FF00003D7E90CAB5946CB006A
:102F0400514643EA51735146CA00104619460346D6
:102F140042469B18C7F8B0304B460A4642EB0303BF
:102F2400C7F8B430D7F8F4305B680022C7F8A8308B
:102F3400C7F8AC20D7E92A120B46DB18BB6213464C
:102F440042EB0303FB62D7E90A23D7E92C01FDF71F
:102F540057F902460B460D4BA3FB02135B09642190
:102F640001FB03F3D31ADB003233084AA2FB032329
:102F74005B0903F00702D7F8F4301B6822449A6017
:102F840005E100BF00100140001401401F85EB5112
:102F9400D7F8FC300022C7F8A030C7F8A420D7E93E
:102FA400288942464B46911839625B417B62D7E9D6
:102FB400082341465418494643EB01054FF00002EB
:102FC4004FF00003EB0043EA5473E20014461D463D
:102FD4004346E318C7F898304B4645EB0303C7F85C
:102FE4009C30D7F8F4305B680022C7F89030C7F8FB
:102FF40094204FF000024FF00003D7E924452946FE
:103004008B00214643EA917321468A00D7E92601C1
:10301400FDF7F6F802460B46604BA3FB02235B095F
:103024001C01D7F8FC300022C7F88830C7F88C2080
:10303400D7E9228942464B469118B9615B41FB614D
:10304400D7E9062341465118396149464B417B6112
:103054004FF000024FF00003D7E904AB5946CB0010
:10306400514643EA51735146CA0010461946034675
:1030740042469B18C7F880304B460A4642EB03038E
:10308400C7F88430D7F8F4305B680022BB67FA676E
:103094004FF000024FF00003D7E91E8949468B0028
:1030A400414643EA917341468A00D7E92001FDF77E
:1030B400A7F802460B46394BA3FB02135B096421B4
:1030C40001FB03F3D31A1B013233344AA2FB03235B
:1030D4005B0903F0F0031C44D7F8FC3000223B6783
:1030E4007A67D7E91C8942464B469118B9605B411F
:1030F400FB60D7E9022341465118396049464B41E8
:103104007B604FF000024FF00003D7E900AB594653
:10311400CB00514643EA51735146CA001046194642
:10312400034642469B18BB664B460A4642EB0303E2
:10313400FB66D7F8F4305B6800223B667A664FF092
:1031440000024FF00003D7E9188949468B00414635
:1031540043EA917341468A00D7E91A01FDF750F812
:1031640002460B460D4BA3FB02135B09642101FBD2
:1031740003F3D31A1B013233084AA2FB03235B096E
:1031840003F00F02D7F8F4301B6822449A6000BFA2
:1031940007F58077BD46BDE8B08F00BF1F85EB51B2
:1031A40080B500AF0E4B1B680D4A43F400731360E7
:1031B4000B4B1B680A4A43F480631360084B1B687B
:1031C400074A43F4807313600320FEF787F8002056
:1031D40000F008F8FDF754FD0023184680BD00BF39
:1031E400003C024080B582B000AF7860124B1A6890
:1031F400124B1B7819464FF47A73B3FBF1F3B2FB0D
:10320400F3F31846FEF791F80346002B01D001238F
:103214000EE07B680F2B0AD8002279684FF0FF304C
:10322400FEF767F8064A7B681360002300E0012379
:1032340018460837BD4680BD000000200800002065
:103244000400002080B400AF064B1B781A46064BDE
:103254001B681344044A136000BFBD465DF8047B39
:10326400704700BF080000201C02002080B400AF9B
:10327400034B1B681846BD465DF8047B704700BFCE
:103284001C02002080B584B000AF7860FFF7EEFF29
:10329400B8607B68FB60FB68B3F1FF3F05D00A4B65
:1032A4001B781A46FB681344FB6000BFFFF7DEFF80
:1032B4000246BB68D31AFA689A42F7D800BF00BF27
:1032C4001037BD4680BD00BF0800002070B50D4D0D
:1032D4000D4C641BA4100026A64209D10B4D0C4CC6
:1032E40000F020F8641BA4100026A64205D170BD8E
:1032F40055F8043B98470136EEE755F8043B9847E8
:103304000136F2E7603300086033000860330008D8
:103314006433000802440346934200D1704703F823
:10332400011BF9E7F8B500BFF8BC08BC9E4670471E
:0C333400F8B500BFF8BC08BC9E4670470E
:103340000000000000000000010203040607080955
:0833500000000000010203046B
:08335800DCCEFF7F0100000044
:04336000E901000877
:04336400C501000897
:0C3368000024F400100000000100000030
:0400000508001129B5
:00000001FF
